:020000040800F2
:1000000000280020050200085502000855020008DB
:1000100055020008550200085502000800000000C3
:100020000000000000000000000000005502000871
:1000300055020008000000005502000855020008A3
:100040005502000855020008550200085502000834
:100050005502000855020008550200085502000824
:100060005502000855020008550200085502000814
:100070005502000855020008550200085502000804
:1000800055020008550200085502000855020008F4
:1000900055020008550200085502000855020008E4
:1000A00055020008550200085502000855020008D4
:1000B00055020008550200085502000855020008C4
:1000C00055020008550200085502000855020008B4
:1000D00055020008550200085502000855020008A4
:1000E00055020008550200080000000055020008F3
:1000F0005502000855020008550200085502000884
:100100005502000855020008550200085502000873
:100110005502000855020008550200085502000863
:100120005502000855020008550200085502000853
:1001300010B5054C237833B9044B13B10448AFF321
:1001400000800123237010BD00000020000000008B
:10015000A002000808B5034B1BB103490348AFF3E5
:10016000008008BD0000000004000020A00200087C
:1001700080B483B000AF1F4B1B681E4A43F00403DA
:1001800013601D4B1B681C4A43F0010313601A4B9C
:100190001B68194A43F002031360174B1B68164A89
:1001A00023F004031360144B1B68134A23F0080365
:1001B0001360124B1B68114A43F0010313600023C4
:1001C0007B6002E07B6801337B607B680C4A934272
:1001D000F8D90A4B1B68094A23F001031360002376
:1001E0003B6002E03B6801333B603B68044A93425A
:1001F000F8D9DEE718100240000801400C08014061
:100200001FA107000D488546AFF300800C480D493B
:100210000D4A002302E0D458C4500433C4188C4261
:10022000F9D30A4A0A4C002301E013600432A242C7
:10023000FBD300F011F8FFF79BFFFEE7002800203A
:100240000000002000000020C00200080000002084
:100250001C000020FEE7000070B500260C4D0D4C80
:10026000641BA410A64209D100F01AF800260A4D1A
:100270000A4C641BA410A64205D170BD55F8043B7E
:1002800098470136EEE755F8043B98470136F2E708
:10029000B8020008B8020008B8020008BC02000852
:1002A000F8B500BFF8BC08BC9E467047F8B500BF63
:0802B000F8BC08BC9E46704733
:0402B80055010008E4
:0402BC003101000804
:0400000508000205E8
:00000001FF
